:020000040800F2
:1000000078060020BD010008C5010008C7010008EE
:10001000C9010008CB010008CD0100080000000064
:10002000000000000000000000000000CF010008F8
:10003000D101000800000000D3010008D50100082C
:10004000D7010008D7010008D7010008D701000830
:10005000D7010008D7010008D7010008D701000820
:10006000D7010008D7010008D7010008D701000810
:10007000D7010008D7010008D7010008D701000800
:10008000D7010008D7010008D701000800000000D0
:10009000000000000000000000000000D701000880
:1000A000D7010008D7010008D7010008D7010008D0
:1000B000D7010008D7010008D7010008D7010008C0
:1000C000D7010008D7010008D7010008D7010008B0
:1000D000D7010008D7010008D7010008D7010008A0
:1000E000D7010008D7010008D70100080000000070
:1000F0000000000000000000000000000000000000
:1001000000000000000000000000000000000000EF
:100110000000000000000000D7010008D70100081F
:1001200000F002F800F03AF80AA090E8000C8244CF
:100130008344AAF10107DA4501D100F02FF8AFF2AC
:10014000090EBAE80F0013F0010F18BFFB1A43F0B5
:1001500001031847D8090000F8090000103A24BF2D
:1001600078C878C1FAD8520724BF30C830C144BF1C
:1001700004680C607047000000230024002500265E
:10018000103A28BF78C1FBD8520728BF30C148BFFA
:100190000B6070471FB51FBD10B510BD00F031F8E2
:1001A0001146FFF7F7FF00F0F9FA00F04FF803B43B
:1001B000FFF7F2FF03BC00F057F800000948804742
:1001C00009480047FEE7FEE7FEE7FEE7FEE7FEE739
:1001D000FEE7FEE7FEE7FEE704480549054A064B51
:1001E000704700009D0500082101000878000020EC
:1001F00078060020780200207802002070477047BF
:100200007047754600F02CF8AE4605006946534627
:1002100020F00700854618B020B5FFF7DDFFBDE8E8
:1002200020404FF000064FF000074FF000084FF05D
:10023000000BAC46ACE8C009ACE8C009ACE8C009AA
:10024000ACE8C00921F007018D46704710B504469F
:10025000AFF300802046BDE81040FFF7A8BF0000C4
:10026000004870470800002001491820ABBEFEE797
:10027000260002007047000088B007900691002019
:100280000590049003900290019000900698C07829
:1002900000F00F0005900698C078C006002806D52B
:1002A000FFE706988178059808430590FFE70698D0
:1002B000007800284BD0FFE70798006801900020E5
:1002C0000390FFE7039807283DD8FFE70399012033
:1002D000884002900698008802990840049004988B
:1002E000029988422AD1FFE7039880000290029980
:1002F0000F2088400090009901988843019005984C
:10030000029900FA01F10198084301900698C0781B
:10031000282806D1FFE70399012088400799486102
:100320000BE00698C078482806D1FFE70399012022
:10033000884007990861FFE7FFE7FFE7FFE70398B9
:1003400001300390BEE7019807990860FFE706981F
:100350000088B0F5807F50DBFFE707984068019088
:1003600000200390FFE70398072842D8FFE703988F
:1003700000F1080101208840029006980088029947
:10038000084004900498029988422DD1FFE7039811
:100390008000029002990F208840009000990198F7
:1003A000884301900598029900FA01F101980843E9
:1003B00001900698C078282808D1FFE7039800F13B
:1003C00008010120884007994861FFE70698C07836
:1003D000482808D1FFE7039800F108010120884070
:1003E00007990861FFE7FFE7FFE7039801300390F3
:1003F000B9E7019807994860FFE708B07047000027
:1004000082B00190ADF8021000208DF80100019833
:100410008068BDF80210084204D0FFE701208DF883
:10042000010003E000208DF80100FFE79DF80100C6
:1004300002B0704782B00190ADF80210BDF8020022
:100440000199486102B0704782B00190ADF8021086
:10045000BDF802000199086102B0704782B00190B6
:100460008DF803109DF8030048B1FFE7019A41F2AF
:100470001801C4F2020108681043086008E0019AFC
:1004800041F21801C4F20201086890430860FFE7D6
:1004900002B0704780B500F001F880BD84B0002044
:1004A0000390029041F20001C4F20201086840F496
:1004B00080300860FFE741F20000C4F202000068EB
:1004C00000F400300290039801300390FFE7029996
:1004D0000020019039B9FFE70398B0F5A06018BF7C
:1004E00001200190FFE70198C0070028E3D1FFE752
:1004F00041F20000C4F2020000688003002803D526
:10050000FFE70120029002E000200290FFE702983E
:1005100001283FD1FFE741F20401C4F2020100913A
:10052000086808600868086008680860086820F4BF
:100530007C100860086840F49810086041F20001DF
:10054000C4F20201086840F080700860FFE741F2E1
:100550000000C4F2020000688001002801D4FFE717
:10056000F5E741F20401C4F20201086820F003003B
:100570000860086840F002000860FFE741F20400EC
:10058000C4F20200006800F00C00082801D0FFE768
:10059000F4E700E0FFE704B07047000080B541F2E7
:1005A0000002C4F20202106840F00100106041F243
:1005B0000401C4F2020108680023CFF6FF031840CB
:1005C000086010684FF6FF73CFF6F66318401060AE
:1005D000106820F480201060086820F4FE00086095
:1005E00041F20801C4F202014FF41F00086041F219
:1005F0002C01C4F2020100200860FFF74BFF4EF609
:100600000851CEF200014FF00060086080BD00008C
:1006100081B0ADF80000BDF90000002805D4FFE767
:10062000BDF80000ADF8020005E0BDF80000404252
:10063000ADF80200FFE7BDF9020001B0704700000D
:1006400080B582B08DF807009DF8071040F60000D5
:10065000C4F20100FFF7EEFE02B080BD80B582B0AB
:100660008DF80700009140F26E00C2F20000B0F970
:10067000000000F049F940F27400C2F20000006886
:10068000009988421CD3FFE79DF80700C00740B1DE
:10069000FFE740F26E01C2F20001088801300880D5
:1006A00007E040F26E01C2F20001088801380880BC
:1006B000FFE740F27401C2F2000100200860FFE78A
:1006C00040F27401C2F2000108680130086040F293
:1006D0006E00C2F20000B0F90000B0F57A7F08DBCE
:1006E000FFE740F26E01C2F200014FF619400880A8
:1006F000FFE740F26E00C2F20000B0F9000010F512
:100700007A7F08DCFFE740F26E01C2F2000140F29E
:10071000E7300880FFE740F26E00C2F20000B0F957
:10072000000002B080BD000081B00090FFE700989B
:1007300028B1FFE7FFE7009801380090F7E701B024
:100740007047000080B584B0042001210191FFF7BB
:1007500085FE01990820FFF781FE10208DF80F001B
:1007600041F6EF70ADF80C0003208DF80E0040F656
:100770000000C4F2010003A90291FFF77DFD029978
:1007800028208DF80F007020ADF80C0040F60040D6
:10079000C4F20100FFF770FD04B080BD80B584B0E5
:1007A00000200390FFF7CEFFFFE740F60040C4F2C1
:1007B000010001902021FFF723FE0146019840F23D
:1007C0006802C2F20002029211801021FFF718FEA7
:1007D0000146019840F26A02C2F2000211804021F3
:1007E000FFF70EFE0146029840F26C02C2F20002D0
:1007F00011800088E8B1FFE740F20000C2F200007B
:100800000078C00738B1FFE740F20001C2F20001F2
:100810000020087006E040F20001C2F20001012051
:100820000870FFE74FF68040C0F20A00FFF77CFF38
:10083000FFE740F26A00C2F200000088C8B1FFE79B
:1008400040F20200C2F2000001880A3101800088F3
:10085000652807DBFFE740F20201C2F200010A202F
:100860000880FFE74FF68040C0F20A00FFF75CFF08
:10087000FFE740F26C00C2F200000088E8B1FFE739
:1008800040F20100C2F200000078C00738B1FFE773
:1008900040F20101C2F200010020087006E040F2BF
:1008A0000101C2F2000101200870FFE74FF680400D
:1008B000C0F20A00FFF738FFFFE740F20100C2F282
:1008C00000000078C007A0B1FFE740F20000C2F2CC
:1008D000000040F20201C2F200010988007800F035
:1008E0000100FFF7BBFE40F27001C2F20001088078
:1008F00008E040F27000C2F20000B0F9000000F021
:1009000003F8FFE751E7000080B586B0ADF81600A8
:10091000BDF9160046F26761C6F26661009180FB80
:100920000112911001EBD27101EB8101A0EB4100AA
:1009300000B2FFF76DFE0099ADF81400BDF9160086
:1009400080FB0102901000EBD27080FB011291102D
:1009500001EBD27101EB8101A0EB410000B2FFF786
:1009600057FE0099ADF81200BDF9160048F21F526B
:10097000C5F2EB1280FB0202501100EBD27080FB3B
:100980000112911001EBD27101EB8101A0EB41004A
:1009900000B2FFF73DFEADF810004FF2FE60ADF87B
:1009A0000C004BF26660CEF2BE00029046F2FC00F4
:1009B000CFF2DA200190BDF91600B0F1FF3F0EDC56
:1009C000FFE7BDF9101001A8415CBDF91220825C5F
:1009D000BDF91430C35C022000F058F80DE0BDF9F9
:1009E000101001A8415CBDF91220825CBDF91430E1
:1009F000C35C002000F04AF8FFE706B080BD0000AD
:100A000080B586B08DF817008DF816109DF8161079
:100A100040F60000C4F20100FFF716FD40F60A336D
:100A2000C0F60003186859689A68DB68049303925B
:100A30000291019000200090FFE70098072822DC37
:100A4000FFE79DF817000099C840C00758B1FFE7BD
:100A5000009901A830F8111040F60000C4F201001E
:100A6000FFF7E8FC0AE0009901A830F8111040F601
:100A70000000C4F20100FFF7E7FCFFE7FFE7009882
:100A800001300090D9E706B080BD000080B586B087
:100A90008DF817008DF816108DF815208DF814308C
:100AA0004FF47A7004909DF8170008210091FFF729
:100AB000A7FF0498FFF738FE0098FFF7C1FD9DF8E7
:100AC000160004210191FFF79BFF0498FFF72CFE0D
:100AD0000198FFF7B5FD9DF8150002210291FFF77F
:100AE0008FFF0498FFF720FE0298FFF7A9FD9DF8FD
:100AF000140001210391FFF783FF0498FFF714FE10
:100B00000398FFF79DFD06B080BD40008000000205
:100B100000080010200000040001FC60DAF266B654
:100B2000BEE0FEF6EE3E9C7A9E8E00004C0B000866
:100B300000000020040000005C010008500B0008C9
:100B400008000020700600007801000801010A007A
:04000005080001BD31
:00000001FF
